{
  "contractName": "ExpenseTracker",
  "abi": [
    {
      "inputs": [],
      "name": "balance",
      "outputs": [
        {
          "internalType": "int256",
          "name": "",
          "type": "int256"
        }
      ],
      "stateMutability": "view",
      "type": "function",
      "constant": true
    },
    {
      "inputs": [
        {
          "internalType": "uint256",
          "name": "",
          "type": "uint256"
        }
      ],
      "name": "transaction",
      "outputs": [
        {
          "internalType": "address",
          "name": "transactionOwner",
          "type": "address"
        },
        {
          "internalType": "string",
          "name": "transactionDescription",
          "type": "string"
        },
        {
          "internalType": "int64",
          "name": "amount",
          "type": "int64"
        }
      ],
      "stateMutability": "view",
      "type": "function",
      "constant": true
    },
    {
      "inputs": [
        {
          "internalType": "string",
          "name": "_description",
          "type": "string"
        },
        {
          "internalType": "int64",
          "name": "_amount",
          "type": "int64"
        }
      ],
      "name": "addTransaction",
      "outputs": [],
      "stateMutability": "nonpayable",
      "type": "function"
    },
    {
      "inputs": [],
      "name": "getTransactionCount",
      "outputs": [
        {
          "internalType": "uint256",
          "name": "",
          "type": "uint256"
        }
      ],
      "stateMutability": "view",
      "type": "function",
      "constant": true
    }
  ],
  "bytecode": "0x6080604052600160005534801561001557600080fd5b5061086e806100256000396000f3fe608060405234801561001057600080fd5b506004361061004c5760003560e01c80632e7700f01461005157806346bd08411461006f57806372d06472146100a1578063b69ef8a8146100bd575b600080fd5b6100596100db565b6040516100669190610579565b60405180910390f35b61008960048036038101906100849190610482565b6100e8565b60405161009893929190610520565b60405180910390f35b6100bb60048036038101906100b6919061042e565b6101d7565b005b6100c56102f3565b6040516100d2919061055e565b60405180910390f35b6000600180549050905090565b600181815481106100f857600080fd5b90600052602060002090600302016000915090508060000160009054906101000a900473ffffffffffffffffffffffffffffffffffffffff16908060010180546101419061073a565b80601f016020809104026020016040519081016040528092919081815260200182805461016d9061073a565b80156101ba5780601f1061018f576101008083540402835291602001916101ba565b820191906000526020600020905b81548152906001019060200180831161019d57829003601f168201915b5050505050908060020160009054906101000a900460070b905083565b600060405180606001604052803373ffffffffffffffffffffffffffffffffffffffff1681526020018481526020018360070b8152509050600181908060018154018082558091505060019003906000526020600020906003020160009091909190915060008201518160000160006101000a81548173ffffffffffffffffffffffffffffffffffffffff021916908373ffffffffffffffffffffffffffffffffffffffff160217905550602082015181600101908051906020019061029e9291906102f9565b5060408201518160020160006101000a81548167ffffffffffffffff021916908360070b67ffffffffffffffff16021790555050508160070b6000808282546102e79190610611565b92505081905550505050565b60005481565b8280546103059061073a565b90600052602060002090601f016020900481019282610327576000855561036e565b82601f1061034057805160ff191683800117855561036e565b8280016001018555821561036e579182015b8281111561036d578251825591602001919060010190610352565b5b50905061037b919061037f565b5090565b5b80821115610398576000816000905550600101610380565b5090565b60006103af6103aa846105c5565b610594565b9050828152602081018484840111156103c757600080fd5b6103d28482856106f8565b509392505050565b6000813590506103e98161080a565b92915050565b600082601f83011261040057600080fd5b813561041084826020860161039c565b91505092915050565b60008135905061042881610821565b92915050565b6000806040838503121561044157600080fd5b600083013567ffffffffffffffff81111561045b57600080fd5b610467858286016103ef565b9250506020610478858286016103da565b9150509250929050565b60006020828403121561049457600080fd5b60006104a284828501610419565b91505092915050565b6104b4816106a5565b82525050565b6104c3816106b7565b82525050565b6104d2816106c1565b82525050565b60006104e3826105f5565b6104ed8185610600565b93506104fd818560208601610707565b610506816107f9565b840191505092915050565b61051a816106ee565b82525050565b600060608201905061053560008301866104ab565b818103602083015261054781856104d8565b905061055660408301846104c9565b949350505050565b600060208201905061057360008301846104ba565b92915050565b600060208201905061058e6000830184610511565b92915050565b6000604051905081810181811067ffffffffffffffff821117156105bb576105ba6107ca565b5b8060405250919050565b600067ffffffffffffffff8211156105e0576105df6107ca565b5b601f19601f8301169050602081019050919050565b600081519050919050565b600082825260208201905092915050565b600061061c826106b7565b9150610627836106b7565b9250817f7fffffffffffffffffffffffffffffffffffffffffffffffffffffffffffffff038313600083121516156106625761066161076c565b5b817f800000000000000000000000000000000000000000000000000000000000000003831260008312161561069a5761069961076c565b5b828201905092915050565b60006106b0826106ce565b9050919050565b6000819050919050565b60008160070b9050919050565b600073ffffffffffffffffffffffffffffffffffffffff82169050919050565b6000819050919050565b82818337600083830152505050565b60005b8381101561072557808201518184015260208101905061070a565b83811115610734576000848401525b50505050565b6000600282049050600182168061075257607f821691505b602082108114156107665761076561079b565b5b50919050565b7f4e487b7100000000000000000000000000000000000000000000000000000000600052601160045260246000fd5b7f4e487b7100000000000000000000000000000000000000000000000000000000600052602260045260246000fd5b7f4e487b7100000000000000000000000000000000000000000000000000000000600052604160045260246000fd5b6000601f19601f8301169050919050565b610813816106c1565b811461081e57600080fd5b50565b61082a816106ee565b811461083557600080fd5b5056fea2646970667358221220dacf7e0a090fcfee53ff2768ffff1f664f803d15b1cb6b8adb538dc2ad96f00b64736f6c63430008000033",
  "immutableReferences": {},
  "source": "pragma solidity 0.8.0;\n\ncontract ExpenseTracker {\n\n    int public balance = 1;\n\n    Transaction[] public transaction;\n\n    struct Transaction {\n        address transactionOwner;\n        string transactionDescription;\n        int64 amount;\n    }\n\n    function addTransaction(string memory _description, int64 _amount) public {\n        Transaction memory addTx = Transaction(msg.sender, _description, _amount);\n        transaction.push(addTx);\n        balance += _amount;\n    }\n\n    function getTransactionCount() public view returns(uint) {\n        return transaction.length;\n    }\n}",
  "sourcePath": "D:/TRUFFLE_STATER_KIT_DAPPp/EXPENCE_TRACKER/contracts/ExpenseTracker.sol",
  "compiler": {
    "name": "solc",
    "version": "0.8.0+commit.c7dfd78e.Emscripten.clang"
  },
  "schemaVersion": "3.4.1",
  "updatedAt": "2021-10-18T19:27:29.870Z",
  "networkType": "ethereum",
  "devdoc": {
    "kind": "dev",
    "methods": {},
    "version": 1
  },
  "userdoc": {
    "kind": "user",
    "methods": {},
    "version": 1
  }
}