{
  "contractName": "HASANTOKEN",
  "abi": [
    {
      "inputs": [
        {
          "internalType": "uint256",
          "name": "initialSupply",
          "type": "uint256"
        }
      ],
      "stateMutability": "nonpayable",
      "type": "constructor"
    },
    {
      "anonymous": false,
      "inputs": [
        {
          "indexed": true,
          "internalType": "address",
          "name": "owner",
          "type": "address"
        },
        {
          "indexed": true,
          "internalType": "address",
          "name": "spender",
          "type": "address"
        },
        {
          "indexed": false,
          "internalType": "uint256",
          "name": "value",
          "type": "uint256"
        }
      ],
      "name": "Approval",
      "type": "event"
    },
    {
      "anonymous": false,
      "inputs": [
        {
          "indexed": true,
          "internalType": "address",
          "name": "previousOwner",
          "type": "address"
        },
        {
          "indexed": true,
          "internalType": "address",
          "name": "newOwner",
          "type": "address"
        }
      ],
      "name": "OwnershipTransferred",
      "type": "event"
    },
    {
      "anonymous": false,
      "inputs": [
        {
          "indexed": false,
          "internalType": "address",
          "name": "account",
          "type": "address"
        }
      ],
      "name": "Paused",
      "type": "event"
    },
    {
      "anonymous": false,
      "inputs": [
        {
          "indexed": true,
          "internalType": "address",
          "name": "from",
          "type": "address"
        },
        {
          "indexed": true,
          "internalType": "address",
          "name": "to",
          "type": "address"
        },
        {
          "indexed": false,
          "internalType": "uint256",
          "name": "value",
          "type": "uint256"
        }
      ],
      "name": "Transfer",
      "type": "event"
    },
    {
      "anonymous": false,
      "inputs": [
        {
          "indexed": false,
          "internalType": "address",
          "name": "account",
          "type": "address"
        }
      ],
      "name": "Unpaused",
      "type": "event"
    },
    {
      "inputs": [
        {
          "internalType": "address",
          "name": "owner",
          "type": "address"
        },
        {
          "internalType": "address",
          "name": "spender",
          "type": "address"
        }
      ],
      "name": "allowance",
      "outputs": [
        {
          "internalType": "uint256",
          "name": "",
          "type": "uint256"
        }
      ],
      "stateMutability": "view",
      "type": "function"
    },
    {
      "inputs": [
        {
          "internalType": "address",
          "name": "spender",
          "type": "address"
        },
        {
          "internalType": "uint256",
          "name": "amount",
          "type": "uint256"
        }
      ],
      "name": "approve",
      "outputs": [
        {
          "internalType": "bool",
          "name": "",
          "type": "bool"
        }
      ],
      "stateMutability": "nonpayable",
      "type": "function"
    },
    {
      "inputs": [
        {
          "internalType": "address",
          "name": "account",
          "type": "address"
        }
      ],
      "name": "balanceOf",
      "outputs": [
        {
          "internalType": "uint256",
          "name": "",
          "type": "uint256"
        }
      ],
      "stateMutability": "view",
      "type": "function"
    },
    {
      "inputs": [],
      "name": "cap",
      "outputs": [
        {
          "internalType": "uint256",
          "name": "",
          "type": "uint256"
        }
      ],
      "stateMutability": "view",
      "type": "function"
    },
    {
      "inputs": [],
      "name": "decimals",
      "outputs": [
        {
          "internalType": "uint8",
          "name": "",
          "type": "uint8"
        }
      ],
      "stateMutability": "view",
      "type": "function"
    },
    {
      "inputs": [
        {
          "internalType": "address",
          "name": "spender",
          "type": "address"
        },
        {
          "internalType": "uint256",
          "name": "subtractedValue",
          "type": "uint256"
        }
      ],
      "name": "decreaseAllowance",
      "outputs": [
        {
          "internalType": "bool",
          "name": "",
          "type": "bool"
        }
      ],
      "stateMutability": "nonpayable",
      "type": "function"
    },
    {
      "inputs": [
        {
          "internalType": "address",
          "name": "spender",
          "type": "address"
        },
        {
          "internalType": "uint256",
          "name": "addedValue",
          "type": "uint256"
        }
      ],
      "name": "increaseAllowance",
      "outputs": [
        {
          "internalType": "bool",
          "name": "",
          "type": "bool"
        }
      ],
      "stateMutability": "nonpayable",
      "type": "function"
    },
    {
      "inputs": [],
      "name": "name",
      "outputs": [
        {
          "internalType": "string",
          "name": "",
          "type": "string"
        }
      ],
      "stateMutability": "view",
      "type": "function"
    },
    {
      "inputs": [],
      "name": "owner",
      "outputs": [
        {
          "internalType": "address",
          "name": "",
          "type": "address"
        }
      ],
      "stateMutability": "view",
      "type": "function"
    },
    {
      "inputs": [],
      "name": "paused",
      "outputs": [
        {
          "internalType": "bool",
          "name": "",
          "type": "bool"
        }
      ],
      "stateMutability": "view",
      "type": "function"
    },
    {
      "inputs": [],
      "name": "renounceOwnership",
      "outputs": [],
      "stateMutability": "nonpayable",
      "type": "function"
    },
    {
      "inputs": [],
      "name": "symbol",
      "outputs": [
        {
          "internalType": "string",
          "name": "",
          "type": "string"
        }
      ],
      "stateMutability": "view",
      "type": "function"
    },
    {
      "inputs": [],
      "name": "timeDuration",
      "outputs": [
        {
          "internalType": "uint256",
          "name": "",
          "type": "uint256"
        }
      ],
      "stateMutability": "view",
      "type": "function"
    },
    {
      "inputs": [],
      "name": "totalSupply",
      "outputs": [
        {
          "internalType": "uint256",
          "name": "",
          "type": "uint256"
        }
      ],
      "stateMutability": "view",
      "type": "function"
    },
    {
      "inputs": [
        {
          "internalType": "address",
          "name": "recipient",
          "type": "address"
        },
        {
          "internalType": "uint256",
          "name": "amount",
          "type": "uint256"
        }
      ],
      "name": "transfer",
      "outputs": [
        {
          "internalType": "bool",
          "name": "",
          "type": "bool"
        }
      ],
      "stateMutability": "nonpayable",
      "type": "function"
    },
    {
      "inputs": [
        {
          "internalType": "address",
          "name": "sender",
          "type": "address"
        },
        {
          "internalType": "address",
          "name": "recipient",
          "type": "address"
        },
        {
          "internalType": "uint256",
          "name": "amount",
          "type": "uint256"
        }
      ],
      "name": "transferFrom",
      "outputs": [
        {
          "internalType": "bool",
          "name": "",
          "type": "bool"
        }
      ],
      "stateMutability": "nonpayable",
      "type": "function"
    },
    {
      "inputs": [
        {
          "internalType": "address",
          "name": "newOwner",
          "type": "address"
        }
      ],
      "name": "transferOwnership",
      "outputs": [],
      "stateMutability": "nonpayable",
      "type": "function"
    },
    {
      "inputs": [
        {
          "internalType": "address",
          "name": "account",
          "type": "address"
        },
        {
          "internalType": "uint256",
          "name": "amount",
          "type": "uint256"
        }
      ],
      "name": "timeBoundTransfer",
      "outputs": [],
      "stateMutability": "nonpayable",
      "type": "function"
    },
    {
      "inputs": [
        {
          "internalType": "uint256",
          "name": "amount",
          "type": "uint256"
        }
      ],
      "name": "generateToken",
      "outputs": [],
      "stateMutability": "nonpayable",
      "type": "function"
    },
    {
      "inputs": [],
      "name": "stopTransaction",
      "outputs": [],
      "stateMutability": "nonpayable",
      "type": "function"
    },
    {
      "inputs": [],
      "name": "startTransaction",
      "outputs": [],
      "stateMutability": "nonpayable",
      "type": "function"
    }
  ],
  "bytecode": "0x60806040523480156200001157600080fd5b506040516200284f3803806200284f83398181016040528101906200003791906200046f565b6040518060400160405280600a81526020017f484153414e544f4b454e000000000000000000000000000000000000000000008152506040518060400160405280600281526020017f48540000000000000000000000000000000000000000000000000000000000008152508160039080519060200190620000bb929190620003a8565b508060049080519060200190620000d4929190620003a8565b505050620000f7620000eb6200015760201b60201c565b6200015f60201b60201c565b6000600560146101000a81548160ff02191690831515021790555062278d00426200012391906200053e565b600781905550600a816200013891906200059b565b6006819055506200015033826200022560201b60201c565b50620006b4565b600033905090565b6000600560009054906101000a900473ffffffffffffffffffffffffffffffffffffffff16905081600560006101000a81548173ffffffffffffffffffffffffffffffffffffffff021916908373ffffffffffffffffffffffffffffffffffffffff1602179055508173ffffffffffffffffffffffffffffffffffffffff168173ffffffffffffffffffffffffffffffffffffffff167f8be0079c531659141344cd1fd0a4f28419497f9722a3daafe3b4186f6b6457e060405160405180910390a35050565b600073ffffffffffffffffffffffffffffffffffffffff168273ffffffffffffffffffffffffffffffffffffffff16141562000298576040517f08c379a00000000000000000000000000000000000000000000000000000000081526004016200028f90620004ee565b60405180910390fd5b620002ac600083836200039e60201b60201c565b8060026000828254620002c091906200053e565b92505081905550806000808473ffffffffffffffffffffffffffffffffffffffff1673ffffffffffffffffffffffffffffffffffffffff16815260200190815260200160002060008282546200031791906200053e565b925050819055508173ffffffffffffffffffffffffffffffffffffffff16600073ffffffffffffffffffffffffffffffffffffffff167fddf252ad1be2c89b69c2b068fc378daa952ba7f163c4a11628f55a4df523b3ef836040516200037e919062000510565b60405180910390a36200039a60008383620003a360201b60201c565b5050565b505050565b505050565b828054620003b69062000606565b90600052602060002090601f016020900481019282620003da576000855562000426565b82601f10620003f557805160ff191683800117855562000426565b8280016001018555821562000426579182015b828111156200042557825182559160200191906001019062000408565b5b50905062000435919062000439565b5090565b5b80821115620004545760008160009055506001016200043a565b5090565b60008151905062000469816200069a565b92915050565b6000602082840312156200048257600080fd5b6000620004928482850162000458565b91505092915050565b6000620004aa601f836200052d565b91507f45524332303a206d696e7420746f20746865207a65726f2061646472657373006000830152602082019050919050565b620004e881620005fc565b82525050565b6000602082019050818103600083015262000509816200049b565b9050919050565b6000602082019050620005276000830184620004dd565b92915050565b600082825260208201905092915050565b60006200054b82620005fc565b91506200055883620005fc565b9250827fffffffffffffffffffffffffffffffffffffffffffffffffffffffffffffffff0382111562000590576200058f6200063c565b5b828201905092915050565b6000620005a882620005fc565b9150620005b583620005fc565b9250817fffffffffffffffffffffffffffffffffffffffffffffffffffffffffffffffff0483118215151615620005f157620005f06200063c565b5b828202905092915050565b6000819050919050565b600060028204905060018216806200061f57607f821691505b602082108114156200063657620006356200066b565b5b50919050565b7f4e487b7100000000000000000000000000000000000000000000000000000000600052601160045260246000fd5b7f4e487b7100000000000000000000000000000000000000000000000000000000600052602260045260246000fd5b620006a581620005fc565b8114620006b157600080fd5b50565b61218b80620006c46000396000f3fe608060405234801561001057600080fd5b50600436106101375760003560e01c806370a08231116100b8578063a457c2d71161007c578063a457c2d71461031c578063a9059cbb1461034c578063c1affa181461037c578063c73cbef814610386578063dd62ed3e146103a2578063f2fde38b146103d257610137565b806370a0823114610288578063715018a6146102b85780638da5cb5b146102c2578063948c1c70146102e057806395d89b41146102fe57610137565b806323b872dd116100ff57806323b872dd146101ce578063313ce567146101fe578063355274ea1461021c578063395093511461023a5780635c975abb1461026a57610137565b80630151f4221461013c57806306fdde0314610158578063095ea7b31461017657806318160ddd146101a657806320cd08fe146101c4575b600080fd5b61015660048036038101906101519190611744565b6103ee565b005b610160610558565b60405161016d9190611d54565b60405180910390f35b610190600480360381019061018b9190611708565b6105ea565b60405161019d9190611d39565b60405180910390f35b6101ae610608565b6040516101bb9190611f56565b60405180910390f35b6101cc610612565b005b6101e860048036038101906101e391906116b9565b6106df565b6040516101f59190611d39565b60405180910390f35b6102066107d7565b6040516102139190611f71565b60405180910390f35b6102246107e0565b6040516102319190611f56565b60405180910390f35b610254600480360381019061024f9190611708565b6107e6565b6040516102619190611d39565b60405180910390f35b610272610892565b60405161027f9190611d39565b60405180910390f35b6102a2600480360381019061029d9190611654565b6108a9565b6040516102af9190611f56565b60405180910390f35b6102c06108f1565b005b6102ca610979565b6040516102d79190611d1e565b60405180910390f35b6102e86109a3565b6040516102f59190611f56565b60405180910390f35b6103066109a9565b6040516103139190611d54565b60405180910390f35b61033660048036038101906103319190611708565b610a3b565b6040516103439190611d39565b60405180910390f35b61036660048036038101906103619190611708565b610b26565b6040516103739190611d39565b60405180910390f35b610384610b44565b005b6103a0600480360381019061039b9190611708565b610c12565b005b6103bc60048036038101906103b7919061167d565b610ce2565b6040516103c99190611f56565b60405180910390f35b6103ec60048036038101906103e79190611654565b610d69565b005b6103f6610e61565b73ffffffffffffffffffffffffffffffffffffffff16610414610979565b73ffffffffffffffffffffffffffffffffffffffff161461046a576040517f08c379a000000000000000000000000000000000000000000000000000000000815260040161046190611e96565b60405180910390fd5b610472610892565b156104b2576040517f08c379a00000000000000000000000000000000000000000000000000000000081526004016104a990611e56565b60405180910390fd5b600081116104f5576040517f08c379a00000000000000000000000000000000000000000000000000000000081526004016104ec90611e16565b60405180910390fd5b60065481610501610608565b61050b9190611fa8565b1061054b576040517f08c379a000000000000000000000000000000000000000000000000000000000815260040161054290611db6565b60405180910390fd5b6105553382610e69565b50565b60606003805461056790612086565b80601f016020809104026020016040519081016040528092919081815260200182805461059390612086565b80156105e05780601f106105b5576101008083540402835291602001916105e0565b820191906000526020600020905b8154815290600101906020018083116105c357829003601f168201915b5050505050905090565b60006105fe6105f7610e61565b8484610fc9565b6001905092915050565b6000600254905090565b61061a610892565b610659576040517f08c379a000000000000000000000000000000000000000000000000000000000815260040161065090611d96565b60405180910390fd5b610661610e61565b73ffffffffffffffffffffffffffffffffffffffff1661067f610979565b73ffffffffffffffffffffffffffffffffffffffff16146106d5576040517f08c379a00000000000000000000000000000000000000000000000000000000081526004016106cc90611e96565b60405180910390fd5b6106dd611194565b565b60006106ec848484611236565b6000600160008673ffffffffffffffffffffffffffffffffffffffff1673ffffffffffffffffffffffffffffffffffffffff1681526020019081526020016000206000610737610e61565b73ffffffffffffffffffffffffffffffffffffffff1673ffffffffffffffffffffffffffffffffffffffff168152602001908152602001600020549050828110156107b7576040517f08c379a00000000000000000000000000000000000000000000000000000000081526004016107ae90611e76565b60405180910390fd5b6107cb856107c3610e61565b858403610fc9565b60019150509392505050565b60006012905090565b60065481565b60006108886107f3610e61565b848460016000610801610e61565b73ffffffffffffffffffffffffffffffffffffffff1673ffffffffffffffffffffffffffffffffffffffff16815260200190815260200160002060008873ffffffffffffffffffffffffffffffffffffffff1673ffffffffffffffffffffffffffffffffffffffff168152602001908152602001600020546108839190611fa8565b610fc9565b6001905092915050565b6000600560149054906101000a900460ff16905090565b60008060008373ffffffffffffffffffffffffffffffffffffffff1673ffffffffffffffffffffffffffffffffffffffff168152602001908152602001600020549050919050565b6108f9610e61565b73ffffffffffffffffffffffffffffffffffffffff16610917610979565b73ffffffffffffffffffffffffffffffffffffffff161461096d576040517f08c379a000000000000000000000000000000000000000000000000000000000815260040161096490611e96565b60405180910390fd5b61097760006114b7565b565b6000600560009054906101000a900473ffffffffffffffffffffffffffffffffffffffff16905090565b60075481565b6060600480546109b890612086565b80601f01602080910402602001604051908101604052809291908181526020018280546109e490612086565b8015610a315780601f10610a0657610100808354040283529160200191610a31565b820191906000526020600020905b815481529060010190602001808311610a1457829003601f168201915b5050505050905090565b60008060016000610a4a610e61565b73ffffffffffffffffffffffffffffffffffffffff1673ffffffffffffffffffffffffffffffffffffffff16815260200190815260200160002060008573ffffffffffffffffffffffffffffffffffffffff1673ffffffffffffffffffffffffffffffffffffffff16815260200190815260200160002054905082811015610b07576040517f08c379a0000000000000000000000000000000000000000000000000000000008152600401610afe90611f16565b60405180910390fd5b610b1b610b12610e61565b85858403610fc9565b600191505092915050565b6000610b3a610b33610e61565b8484611236565b6001905092915050565b610b4c610892565b15610b8c576040517f08c379a0000000000000000000000000000000000000000000000000000000008152600401610b8390611e56565b60405180910390fd5b610b94610e61565b73ffffffffffffffffffffffffffffffffffffffff16610bb2610979565b73ffffffffffffffffffffffffffffffffffffffff1614610c08576040517f08c379a0000000000000000000000000000000000000000000000000000000008152600401610bff90611e96565b60405180910390fd5b610c1061157d565b565b610c1a610e61565b73ffffffffffffffffffffffffffffffffffffffff16610c38610979565b73ffffffffffffffffffffffffffffffffffffffff1614610c8e576040517f08c379a0000000000000000000000000000000000000000000000000000000008152600401610c8590611e96565b60405180910390fd5b600754421015610cd3576040517f08c379a0000000000000000000000000000000000000000000000000000000008152600401610cca90611eb6565b60405180910390fd5b610cde338383611236565b5050565b6000600160008473ffffffffffffffffffffffffffffffffffffffff1673ffffffffffffffffffffffffffffffffffffffff16815260200190815260200160002060008373ffffffffffffffffffffffffffffffffffffffff1673ffffffffffffffffffffffffffffffffffffffff16815260200190815260200160002054905092915050565b610d71610e61565b73ffffffffffffffffffffffffffffffffffffffff16610d8f610979565b73ffffffffffffffffffffffffffffffffffffffff1614610de5576040517f08c379a0000000000000000000000000000000000000000000000000000000008152600401610ddc90611e96565b60405180910390fd5b600073ffffffffffffffffffffffffffffffffffffffff168173ffffffffffffffffffffffffffffffffffffffff161415610e55576040517f08c379a0000000000000000000000000000000000000000000000000000000008152600401610e4c90611dd6565b60405180910390fd5b610e5e816114b7565b50565b600033905090565b600073ffffffffffffffffffffffffffffffffffffffff168273ffffffffffffffffffffffffffffffffffffffff161415610ed9576040517f08c379a0000000000000000000000000000000000000000000000000000000008152600401610ed090611f36565b60405180910390fd5b610ee560008383611620565b8060026000828254610ef79190611fa8565b92505081905550806000808473ffffffffffffffffffffffffffffffffffffffff1673ffffffffffffffffffffffffffffffffffffffff1681526020019081526020016000206000828254610f4c9190611fa8565b925050819055508173ffffffffffffffffffffffffffffffffffffffff16600073ffffffffffffffffffffffffffffffffffffffff167fddf252ad1be2c89b69c2b068fc378daa952ba7f163c4a11628f55a4df523b3ef83604051610fb19190611f56565b60405180910390a3610fc560008383611625565b5050565b600073ffffffffffffffffffffffffffffffffffffffff168373ffffffffffffffffffffffffffffffffffffffff161415611039576040517f08c379a000000000000000000000000000000000000000000000000000000000815260040161103090611ef6565b60405180910390fd5b600073ffffffffffffffffffffffffffffffffffffffff168273ffffffffffffffffffffffffffffffffffffffff1614156110a9576040517f08c379a00000000000000000000000000000000000000000000000000000000081526004016110a090611df6565b60405180910390fd5b80600160008573ffffffffffffffffffffffffffffffffffffffff1673ffffffffffffffffffffffffffffffffffffffff16815260200190815260200160002060008473ffffffffffffffffffffffffffffffffffffffff1673ffffffffffffffffffffffffffffffffffffffff168152602001908152602001600020819055508173ffffffffffffffffffffffffffffffffffffffff168373ffffffffffffffffffffffffffffffffffffffff167f8c5be1e5ebec7d5bd14f71427d1e84f3dd0314c0f7b2291e5b200ac8c7c3b925836040516111879190611f56565b60405180910390a3505050565b61119c610892565b6111db576040517f08c379a00000000000000000000000000000000000000000000000000000000081526004016111d290611d96565b60405180910390fd5b6000600560146101000a81548160ff0219169083151502179055507f5db9ee0a495bf2e6ff9c91a7834c1ba4fdd244a5e8aa4e537bd38aeae4b073aa61121f610e61565b60405161122c9190611d1e565b60405180910390a1565b600073ffffffffffffffffffffffffffffffffffffffff168373ffffffffffffffffffffffffffffffffffffffff1614156112a6576040517f08c379a000000000000000000000000000000000000000000000000000000000815260040161129d90611ed6565b60405180910390fd5b600073ffffffffffffffffffffffffffffffffffffffff168273ffffffffffffffffffffffffffffffffffffffff161415611316576040517f08c379a000000000000000000000000000000000000000000000000000000000815260040161130d90611d76565b60405180910390fd5b611321838383611620565b60008060008573ffffffffffffffffffffffffffffffffffffffff1673ffffffffffffffffffffffffffffffffffffffff168152602001908152602001600020549050818110156113a7576040517f08c379a000000000000000000000000000000000000000000000000000000000815260040161139e90611e36565b60405180910390fd5b8181036000808673ffffffffffffffffffffffffffffffffffffffff1673ffffffffffffffffffffffffffffffffffffffff16815260200190815260200160002081905550816000808573ffffffffffffffffffffffffffffffffffffffff1673ffffffffffffffffffffffffffffffffffffffff168152602001908152602001600020600082825461143a9190611fa8565b925050819055508273ffffffffffffffffffffffffffffffffffffffff168473ffffffffffffffffffffffffffffffffffffffff167fddf252ad1be2c89b69c2b068fc378daa952ba7f163c4a11628f55a4df523b3ef8460405161149e9190611f56565b60405180910390a36114b1848484611625565b50505050565b6000600560009054906101000a900473ffffffffffffffffffffffffffffffffffffffff16905081600560006101000a81548173ffffffffffffffffffffffffffffffffffffffff021916908373ffffffffffffffffffffffffffffffffffffffff1602179055508173ffffffffffffffffffffffffffffffffffffffff168173ffffffffffffffffffffffffffffffffffffffff167f8be0079c531659141344cd1fd0a4f28419497f9722a3daafe3b4186f6b6457e060405160405180910390a35050565b611585610892565b156115c5576040517f08c379a00000000000000000000000000000000000000000000000000000000081526004016115bc90611e56565b60405180910390fd5b6001600560146101000a81548160ff0219169083151502179055507f62e78cea01bee320cd4e420270b5ea74000d11b0c9f74754ebdbfc544b05a258611609610e61565b6040516116169190611d1e565b60405180910390a1565b505050565b505050565b60008135905061163981612127565b92915050565b60008135905061164e8161213e565b92915050565b60006020828403121561166657600080fd5b60006116748482850161162a565b91505092915050565b6000806040838503121561169057600080fd5b600061169e8582860161162a565b92505060206116af8582860161162a565b9150509250929050565b6000806000606084860312156116ce57600080fd5b60006116dc8682870161162a565b93505060206116ed8682870161162a565b92505060406116fe8682870161163f565b9150509250925092565b6000806040838503121561171b57600080fd5b60006117298582860161162a565b925050602061173a8582860161163f565b9150509250929050565b60006020828403121561175657600080fd5b60006117648482850161163f565b91505092915050565b61177681611ffe565b82525050565b61178581612010565b82525050565b600061179682611f8c565b6117a08185611f97565b93506117b0818560208601612053565b6117b981612116565b840191505092915050565b60006117d1602383611f97565b91507f45524332303a207472616e7366657220746f20746865207a65726f206164647260008301527f65737300000000000000000000000000000000000000000000000000000000006020830152604082019050919050565b6000611837601483611f97565b91507f5061757361626c653a206e6f74207061757365640000000000000000000000006000830152602082019050919050565b6000611877602883611f97565b91507f6f7665724c696d697420746f6b656e3a20546f6b656e2067656e65726174696f60008301527f6e206661696c65640000000000000000000000000000000000000000000000006020830152604082019050919050565b60006118dd602683611f97565b91507f4f776e61626c653a206e6577206f776e657220697320746865207a65726f206160008301527f64647265737300000000000000000000000000000000000000000000000000006020830152604082019050919050565b6000611943602283611f97565b91507f45524332303a20617070726f766520746f20746865207a65726f20616464726560008301527f73730000000000000000000000000000000000000000000000000000000000006020830152604082019050919050565b60006119a9600e83611f97565b91507f496e76616c696420616d6f756e740000000000000000000000000000000000006000830152602082019050919050565b60006119e9602683611f97565b91507f45524332303a207472616e7366657220616d6f756e742065786365656473206260008301527f616c616e636500000000000000000000000000000000000000000000000000006020830152604082019050919050565b6000611a4f601083611f97565b91507f5061757361626c653a20706175736564000000000000000000000000000000006000830152602082019050919050565b6000611a8f602883611f97565b91507f45524332303a207472616e7366657220616d6f756e742065786365656473206160008301527f6c6c6f77616e63650000000000000000000000000000000000000000000000006020830152604082019050919050565b6000611af5602083611f97565b91507f4f776e61626c653a2063616c6c6572206973206e6f7420746865206f776e65726000830152602082019050919050565b6000611b35602a83611f97565b91507f796f752063616e6e6f742073656e64207472616e73616374696f6e206265666f60008301527f72652033302064617973000000000000000000000000000000000000000000006020830152604082019050919050565b6000611b9b602583611f97565b91507f45524332303a207472616e736665722066726f6d20746865207a65726f20616460008301527f64726573730000000000000000000000000000000000000000000000000000006020830152604082019050919050565b6000611c01602483611f97565b91507f45524332303a20617070726f76652066726f6d20746865207a65726f2061646460008301527f72657373000000000000000000000000000000000000000000000000000000006020830152604082019050919050565b6000611c67602583611f97565b91507f45524332303a2064656372656173656420616c6c6f77616e63652062656c6f7760008301527f207a65726f0000000000000000000000000000000000000000000000000000006020830152604082019050919050565b6000611ccd601f83611f97565b91507f45524332303a206d696e7420746f20746865207a65726f2061646472657373006000830152602082019050919050565b611d098161203c565b82525050565b611d1881612046565b82525050565b6000602082019050611d33600083018461176d565b92915050565b6000602082019050611d4e600083018461177c565b92915050565b60006020820190508181036000830152611d6e818461178b565b905092915050565b60006020820190508181036000830152611d8f816117c4565b9050919050565b60006020820190508181036000830152611daf8161182a565b9050919050565b60006020820190508181036000830152611dcf8161186a565b9050919050565b60006020820190508181036000830152611def816118d0565b9050919050565b60006020820190508181036000830152611e0f81611936565b9050919050565b60006020820190508181036000830152611e2f8161199c565b9050919050565b60006020820190508181036000830152611e4f816119dc565b9050919050565b60006020820190508181036000830152611e6f81611a42565b9050919050565b60006020820190508181036000830152611e8f81611a82565b9050919050565b60006020820190508181036000830152611eaf81611ae8565b9050919050565b60006020820190508181036000830152611ecf81611b28565b9050919050565b60006020820190508181036000830152611eef81611b8e565b9050919050565b60006020820190508181036000830152611f0f81611bf4565b9050919050565b60006020820190508181036000830152611f2f81611c5a565b9050919050565b60006020820190508181036000830152611f4f81611cc0565b9050919050565b6000602082019050611f6b6000830184611d00565b92915050565b6000602082019050611f866000830184611d0f565b92915050565b600081519050919050565b600082825260208201905092915050565b6000611fb38261203c565b9150611fbe8361203c565b9250827fffffffffffffffffffffffffffffffffffffffffffffffffffffffffffffffff03821115611ff357611ff26120b8565b5b828201905092915050565b60006120098261201c565b9050919050565b60008115159050919050565b600073ffffffffffffffffffffffffffffffffffffffff82169050919050565b6000819050919050565b600060ff82169050919050565b60005b83811015612071578082015181840152602081019050612056565b83811115612080576000848401525b50505050565b6000600282049050600182168061209e57607f821691505b602082108114156120b2576120b16120e7565b5b50919050565b7f4e487b7100000000000000000000000000000000000000000000000000000000600052601160045260246000fd5b7f4e487b7100000000000000000000000000000000000000000000000000000000600052602260045260246000fd5b6000601f19601f8301169050919050565b61213081611ffe565b811461213b57600080fd5b50565b6121478161203c565b811461215257600080fd5b5056fea2646970667358221220d6a0470e2268931ef0ddbeabb87c9e51a2a5f6bd07ab0b37ab8ea6fc00e3600964736f6c63430008000033",
  "immutableReferences": {},
  "source": "// SPDX-License-Identifier: MIT\r\npragma solidity ^0.8.0;\r\n\r\nimport \"@openzeppelin/contracts/token/ERC20/ERC20.sol\";\r\nimport \"@openzeppelin/contracts/access/Ownable.sol\";\r\nimport \"@openzeppelin/contracts/token/ERC20/extensions/ERC20Pausable.sol\";\r\n \r\ncontract HASANTOKEN is ERC20,Ownable,Pausable{\r\n      uint256 public cap;\r\n      uint256 public timeDuration;\r\n\r\n    constructor(uint256 initialSupply) ERC20(\"HASANTOKEN\",\"HT\"){\r\n        timeDuration=block.timestamp +  30 days; \r\n        cap=initialSupply*10;\r\n        _mint(msg.sender, initialSupply);\r\n    }\r\n\r\n     \r\n       function  timeBoundTransfer(address account, uint256 amount) public  onlyOwner{\r\n               // uint256   duration=1632328460;               // 30 days\r\n                require(block.timestamp >=timeDuration,\"you cannot send transaction before 30 days\");\r\n                _transfer(msg.sender,account,amount);\r\n           \r\n       }\r\n\r\n    function generateToken(uint256 amount) public onlyOwner whenNotPaused {\r\n        require(amount >0, \"Invalid amount\");\r\n        require(totalSupply()+amount<cap,\"overLimit token: Token generation failed\");\r\n        _mint(msg.sender,amount);\r\n        \r\n    }\r\n    \r\n    function stopTransaction()public whenNotPaused onlyOwner{\r\n        _pause();\r\n        \r\n    }\r\n    function startTransaction()public whenPaused onlyOwner{\r\n        _unpause();\r\n        \r\n    }\r\n    \r\n    \r\n    \r\n    \r\n}",
  "sourcePath": "D:/blockchain-quater3-assigments/assigment-3B/contracts/ERC20.sol",
  "compiler": {
    "name": "solc",
    "version": "0.8.0+commit.c7dfd78e.Emscripten.clang"
  },
  "schemaVersion": "3.4.1",
  "updatedAt": "2021-08-23T17:01:55.843Z",
  "devdoc": {
    "kind": "dev",
    "methods": {
      "allowance(address,address)": {
        "details": "See {IERC20-allowance}."
      },
      "approve(address,uint256)": {
        "details": "See {IERC20-approve}. Requirements: - `spender` cannot be the zero address."
      },
      "balanceOf(address)": {
        "details": "See {IERC20-balanceOf}."
      },
      "decimals()": {
        "details": "Returns the number of decimals used to get its user representation. For example, if `decimals` equals `2`, a balance of `505` tokens should be displayed to a user as `5.05` (`505 / 10 ** 2`). Tokens usually opt for a value of 18, imitating the relationship between Ether and Wei. This is the value {ERC20} uses, unless this function is overridden; NOTE: This information is only used for _display_ purposes: it in no way affects any of the arithmetic of the contract, including {IERC20-balanceOf} and {IERC20-transfer}."
      },
      "decreaseAllowance(address,uint256)": {
        "details": "Atomically decreases the allowance granted to `spender` by the caller. This is an alternative to {approve} that can be used as a mitigation for problems described in {IERC20-approve}. Emits an {Approval} event indicating the updated allowance. Requirements: - `spender` cannot be the zero address. - `spender` must have allowance for the caller of at least `subtractedValue`."
      },
      "increaseAllowance(address,uint256)": {
        "details": "Atomically increases the allowance granted to `spender` by the caller. This is an alternative to {approve} that can be used as a mitigation for problems described in {IERC20-approve}. Emits an {Approval} event indicating the updated allowance. Requirements: - `spender` cannot be the zero address."
      },
      "name()": {
        "details": "Returns the name of the token."
      },
      "owner()": {
        "details": "Returns the address of the current owner."
      },
      "paused()": {
        "details": "Returns true if the contract is paused, and false otherwise."
      },
      "renounceOwnership()": {
        "details": "Leaves the contract without owner. It will not be possible to call `onlyOwner` functions anymore. Can only be called by the current owner. NOTE: Renouncing ownership will leave the contract without an owner, thereby removing any functionality that is only available to the owner."
      },
      "symbol()": {
        "details": "Returns the symbol of the token, usually a shorter version of the name."
      },
      "totalSupply()": {
        "details": "See {IERC20-totalSupply}."
      },
      "transfer(address,uint256)": {
        "details": "See {IERC20-transfer}. Requirements: - `recipient` cannot be the zero address. - the caller must have a balance of at least `amount`."
      },
      "transferFrom(address,address,uint256)": {
        "details": "See {IERC20-transferFrom}. Emits an {Approval} event indicating the updated allowance. This is not required by the EIP. See the note at the beginning of {ERC20}. Requirements: - `sender` and `recipient` cannot be the zero address. - `sender` must have a balance of at least `amount`. - the caller must have allowance for ``sender``'s tokens of at least `amount`."
      },
      "transferOwnership(address)": {
        "details": "Transfers ownership of the contract to a new account (`newOwner`). Can only be called by the current owner."
      }
    },
    "version": 1
  },
  "userdoc": {
    "kind": "user",
    "methods": {},
    "version": 1
  }
}