{
  "contractName": "HASANTOKEN",
  "abi": [
    {
      "inputs": [
        {
          "internalType": "uint256",
          "name": "initialSupply",
          "type": "uint256"
        }
      ],
      "stateMutability": "nonpayable",
      "type": "constructor"
    },
    {
      "anonymous": false,
      "inputs": [
        {
          "indexed": true,
          "internalType": "address",
          "name": "owner",
          "type": "address"
        },
        {
          "indexed": true,
          "internalType": "address",
          "name": "spender",
          "type": "address"
        },
        {
          "indexed": false,
          "internalType": "uint256",
          "name": "value",
          "type": "uint256"
        }
      ],
      "name": "Approval",
      "type": "event"
    },
    {
      "anonymous": false,
      "inputs": [
        {
          "indexed": true,
          "internalType": "address",
          "name": "previousOwner",
          "type": "address"
        },
        {
          "indexed": true,
          "internalType": "address",
          "name": "newOwner",
          "type": "address"
        }
      ],
      "name": "OwnershipTransferred",
      "type": "event"
    },
    {
      "anonymous": false,
      "inputs": [
        {
          "indexed": false,
          "internalType": "address",
          "name": "account",
          "type": "address"
        }
      ],
      "name": "Paused",
      "type": "event"
    },
    {
      "anonymous": false,
      "inputs": [
        {
          "indexed": true,
          "internalType": "address",
          "name": "from",
          "type": "address"
        },
        {
          "indexed": true,
          "internalType": "address",
          "name": "to",
          "type": "address"
        },
        {
          "indexed": false,
          "internalType": "uint256",
          "name": "value",
          "type": "uint256"
        }
      ],
      "name": "Transfer",
      "type": "event"
    },
    {
      "anonymous": false,
      "inputs": [
        {
          "indexed": false,
          "internalType": "address",
          "name": "account",
          "type": "address"
        }
      ],
      "name": "Unpaused",
      "type": "event"
    },
    {
      "inputs": [
        {
          "internalType": "address",
          "name": "owner",
          "type": "address"
        },
        {
          "internalType": "address",
          "name": "spender",
          "type": "address"
        }
      ],
      "name": "allowance",
      "outputs": [
        {
          "internalType": "uint256",
          "name": "",
          "type": "uint256"
        }
      ],
      "stateMutability": "view",
      "type": "function"
    },
    {
      "inputs": [
        {
          "internalType": "address",
          "name": "spender",
          "type": "address"
        },
        {
          "internalType": "uint256",
          "name": "amount",
          "type": "uint256"
        }
      ],
      "name": "approve",
      "outputs": [
        {
          "internalType": "bool",
          "name": "",
          "type": "bool"
        }
      ],
      "stateMutability": "nonpayable",
      "type": "function"
    },
    {
      "inputs": [
        {
          "internalType": "address",
          "name": "account",
          "type": "address"
        }
      ],
      "name": "balanceOf",
      "outputs": [
        {
          "internalType": "uint256",
          "name": "",
          "type": "uint256"
        }
      ],
      "stateMutability": "view",
      "type": "function"
    },
    {
      "inputs": [],
      "name": "cap",
      "outputs": [
        {
          "internalType": "uint256",
          "name": "",
          "type": "uint256"
        }
      ],
      "stateMutability": "view",
      "type": "function"
    },
    {
      "inputs": [],
      "name": "decimals",
      "outputs": [
        {
          "internalType": "uint8",
          "name": "",
          "type": "uint8"
        }
      ],
      "stateMutability": "view",
      "type": "function"
    },
    {
      "inputs": [
        {
          "internalType": "address",
          "name": "spender",
          "type": "address"
        },
        {
          "internalType": "uint256",
          "name": "subtractedValue",
          "type": "uint256"
        }
      ],
      "name": "decreaseAllowance",
      "outputs": [
        {
          "internalType": "bool",
          "name": "",
          "type": "bool"
        }
      ],
      "stateMutability": "nonpayable",
      "type": "function"
    },
    {
      "inputs": [
        {
          "internalType": "address",
          "name": "spender",
          "type": "address"
        },
        {
          "internalType": "uint256",
          "name": "addedValue",
          "type": "uint256"
        }
      ],
      "name": "increaseAllowance",
      "outputs": [
        {
          "internalType": "bool",
          "name": "",
          "type": "bool"
        }
      ],
      "stateMutability": "nonpayable",
      "type": "function"
    },
    {
      "inputs": [],
      "name": "name",
      "outputs": [
        {
          "internalType": "string",
          "name": "",
          "type": "string"
        }
      ],
      "stateMutability": "view",
      "type": "function"
    },
    {
      "inputs": [],
      "name": "owner",
      "outputs": [
        {
          "internalType": "address",
          "name": "",
          "type": "address"
        }
      ],
      "stateMutability": "view",
      "type": "function"
    },
    {
      "inputs": [],
      "name": "paused",
      "outputs": [
        {
          "internalType": "bool",
          "name": "",
          "type": "bool"
        }
      ],
      "stateMutability": "view",
      "type": "function"
    },
    {
      "inputs": [],
      "name": "renounceOwnership",
      "outputs": [],
      "stateMutability": "nonpayable",
      "type": "function"
    },
    {
      "inputs": [],
      "name": "symbol",
      "outputs": [
        {
          "internalType": "string",
          "name": "",
          "type": "string"
        }
      ],
      "stateMutability": "view",
      "type": "function"
    },
    {
      "inputs": [],
      "name": "totalSupply",
      "outputs": [
        {
          "internalType": "uint256",
          "name": "",
          "type": "uint256"
        }
      ],
      "stateMutability": "view",
      "type": "function"
    },
    {
      "inputs": [
        {
          "internalType": "address",
          "name": "recipient",
          "type": "address"
        },
        {
          "internalType": "uint256",
          "name": "amount",
          "type": "uint256"
        }
      ],
      "name": "transfer",
      "outputs": [
        {
          "internalType": "bool",
          "name": "",
          "type": "bool"
        }
      ],
      "stateMutability": "nonpayable",
      "type": "function"
    },
    {
      "inputs": [
        {
          "internalType": "address",
          "name": "sender",
          "type": "address"
        },
        {
          "internalType": "address",
          "name": "recipient",
          "type": "address"
        },
        {
          "internalType": "uint256",
          "name": "amount",
          "type": "uint256"
        }
      ],
      "name": "transferFrom",
      "outputs": [
        {
          "internalType": "bool",
          "name": "",
          "type": "bool"
        }
      ],
      "stateMutability": "nonpayable",
      "type": "function"
    },
    {
      "inputs": [
        {
          "internalType": "address",
          "name": "newOwner",
          "type": "address"
        }
      ],
      "name": "transferOwnership",
      "outputs": [],
      "stateMutability": "nonpayable",
      "type": "function"
    },
    {
      "inputs": [
        {
          "internalType": "uint256",
          "name": "amount",
          "type": "uint256"
        }
      ],
      "name": "generateToken",
      "outputs": [],
      "stateMutability": "nonpayable",
      "type": "function"
    },
    {
      "inputs": [],
      "name": "stopTransaction",
      "outputs": [],
      "stateMutability": "nonpayable",
      "type": "function"
    },
    {
      "inputs": [],
      "name": "startTransaction",
      "outputs": [],
      "stateMutability": "nonpayable",
      "type": "function"
    }
  ],
  "bytecode": "0x60806040523480156200001157600080fd5b506040516200268c3803806200268c833981810160405281019062000037919062000458565b6040518060400160405280600a81526020017f484153414e544f4b454e000000000000000000000000000000000000000000008152506040518060400160405280600281526020017f48540000000000000000000000000000000000000000000000000000000000008152508160039080519060200190620000bb92919062000391565b508060049080519060200190620000d492919062000391565b505050620000f7620000eb6200014060201b60201c565b6200014860201b60201c565b6000600560146101000a81548160ff021916908315150217905550600a8162000121919062000584565b6006819055506200013933826200020e60201b60201c565b506200069d565b600033905090565b6000600560009054906101000a900473ffffffffffffffffffffffffffffffffffffffff16905081600560006101000a81548173ffffffffffffffffffffffffffffffffffffffff021916908373ffffffffffffffffffffffffffffffffffffffff1602179055508173ffffffffffffffffffffffffffffffffffffffff168173ffffffffffffffffffffffffffffffffffffffff167f8be0079c531659141344cd1fd0a4f28419497f9722a3daafe3b4186f6b6457e060405160405180910390a35050565b600073ffffffffffffffffffffffffffffffffffffffff168273ffffffffffffffffffffffffffffffffffffffff16141562000281576040517f08c379a00000000000000000000000000000000000000000000000000000000081526004016200027890620004d7565b60405180910390fd5b62000295600083836200038760201b60201c565b8060026000828254620002a9919062000527565b92505081905550806000808473ffffffffffffffffffffffffffffffffffffffff1673ffffffffffffffffffffffffffffffffffffffff168152602001908152602001600020600082825462000300919062000527565b925050819055508173ffffffffffffffffffffffffffffffffffffffff16600073ffffffffffffffffffffffffffffffffffffffff167fddf252ad1be2c89b69c2b068fc378daa952ba7f163c4a11628f55a4df523b3ef83604051620003679190620004f9565b60405180910390a362000383600083836200038c60201b60201c565b5050565b505050565b505050565b8280546200039f90620005ef565b90600052602060002090601f016020900481019282620003c357600085556200040f565b82601f10620003de57805160ff19168380011785556200040f565b828001600101855582156200040f579182015b828111156200040e578251825591602001919060010190620003f1565b5b5090506200041e919062000422565b5090565b5b808211156200043d57600081600090555060010162000423565b5090565b600081519050620004528162000683565b92915050565b6000602082840312156200046b57600080fd5b60006200047b8482850162000441565b91505092915050565b600062000493601f8362000516565b91507f45524332303a206d696e7420746f20746865207a65726f2061646472657373006000830152602082019050919050565b620004d181620005e5565b82525050565b60006020820190508181036000830152620004f28162000484565b9050919050565b6000602082019050620005106000830184620004c6565b92915050565b600082825260208201905092915050565b60006200053482620005e5565b91506200054183620005e5565b9250827fffffffffffffffffffffffffffffffffffffffffffffffffffffffffffffffff0382111562000579576200057862000625565b5b828201905092915050565b60006200059182620005e5565b91506200059e83620005e5565b9250817fffffffffffffffffffffffffffffffffffffffffffffffffffffffffffffffff0483118215151615620005da57620005d962000625565b5b828202905092915050565b6000819050919050565b600060028204905060018216806200060857607f821691505b602082108114156200061f576200061e62000654565b5b50919050565b7f4e487b7100000000000000000000000000000000000000000000000000000000600052601160045260246000fd5b7f4e487b7100000000000000000000000000000000000000000000000000000000600052602260045260246000fd5b6200068e81620005e5565b81146200069a57600080fd5b50565b611fdf80620006ad6000396000f3fe608060405234801561001057600080fd5b50600436106101215760003560e01c80635c975abb116100ad578063a457c2d711610071578063a457c2d7146102e8578063a9059cbb14610318578063c1affa1814610348578063dd62ed3e14610352578063f2fde38b1461038257610121565b80635c975abb1461025457806370a0823114610272578063715018a6146102a25780638da5cb5b146102ac57806395d89b41146102ca57610121565b806320cd08fe116100f457806320cd08fe146101ae57806323b872dd146101b8578063313ce567146101e8578063355274ea14610206578063395093511461022457610121565b80630151f4221461012657806306fdde0314610142578063095ea7b31461016057806318160ddd14610190575b600080fd5b610140600480360381019061013b919061161e565b61039e565b005b61014a610508565b6040516101579190611bc8565b60405180910390f35b61017a600480360381019061017591906115e2565b61059a565b6040516101879190611bad565b60405180910390f35b6101986105b8565b6040516101a59190611daa565b60405180910390f35b6101b66105c2565b005b6101d260048036038101906101cd9190611593565b61068f565b6040516101df9190611bad565b60405180910390f35b6101f0610787565b6040516101fd9190611dc5565b60405180910390f35b61020e610790565b60405161021b9190611daa565b60405180910390f35b61023e600480360381019061023991906115e2565b610796565b60405161024b9190611bad565b60405180910390f35b61025c610842565b6040516102699190611bad565b60405180910390f35b61028c6004803603810190610287919061152e565b610859565b6040516102999190611daa565b60405180910390f35b6102aa6108a1565b005b6102b4610929565b6040516102c19190611b92565b60405180910390f35b6102d2610953565b6040516102df9190611bc8565b60405180910390f35b61030260048036038101906102fd91906115e2565b6109e5565b60405161030f9190611bad565b60405180910390f35b610332600480360381019061032d91906115e2565b610ad0565b60405161033f9190611bad565b60405180910390f35b610350610aee565b005b61036c60048036038101906103679190611557565b610bbc565b6040516103799190611daa565b60405180910390f35b61039c6004803603810190610397919061152e565b610c43565b005b6103a6610d3b565b73ffffffffffffffffffffffffffffffffffffffff166103c4610929565b73ffffffffffffffffffffffffffffffffffffffff161461041a576040517f08c379a000000000000000000000000000000000000000000000000000000000815260040161041190611d0a565b60405180910390fd5b610422610842565b15610462576040517f08c379a000000000000000000000000000000000000000000000000000000000815260040161045990611cca565b60405180910390fd5b600081116104a5576040517f08c379a000000000000000000000000000000000000000000000000000000000815260040161049c90611c8a565b60405180910390fd5b600654816104b16105b8565b6104bb9190611dfc565b106104fb576040517f08c379a00000000000000000000000000000000000000000000000000000000081526004016104f290611c2a565b60405180910390fd5b6105053382610d43565b50565b60606003805461051790611eda565b80601f016020809104026020016040519081016040528092919081815260200182805461054390611eda565b80156105905780601f1061056557610100808354040283529160200191610590565b820191906000526020600020905b81548152906001019060200180831161057357829003601f168201915b5050505050905090565b60006105ae6105a7610d3b565b8484610ea3565b6001905092915050565b6000600254905090565b6105ca610842565b610609576040517f08c379a000000000000000000000000000000000000000000000000000000000815260040161060090611c0a565b60405180910390fd5b610611610d3b565b73ffffffffffffffffffffffffffffffffffffffff1661062f610929565b73ffffffffffffffffffffffffffffffffffffffff1614610685576040517f08c379a000000000000000000000000000000000000000000000000000000000815260040161067c90611d0a565b60405180910390fd5b61068d61106e565b565b600061069c848484611110565b6000600160008673ffffffffffffffffffffffffffffffffffffffff1673ffffffffffffffffffffffffffffffffffffffff16815260200190815260200160002060006106e7610d3b565b73ffffffffffffffffffffffffffffffffffffffff1673ffffffffffffffffffffffffffffffffffffffff16815260200190815260200160002054905082811015610767576040517f08c379a000000000000000000000000000000000000000000000000000000000815260040161075e90611cea565b60405180910390fd5b61077b85610773610d3b565b858403610ea3565b60019150509392505050565b60006012905090565b60065481565b60006108386107a3610d3b565b8484600160006107b1610d3b565b73ffffffffffffffffffffffffffffffffffffffff1673ffffffffffffffffffffffffffffffffffffffff16815260200190815260200160002060008873ffffffffffffffffffffffffffffffffffffffff1673ffffffffffffffffffffffffffffffffffffffff168152602001908152602001600020546108339190611dfc565b610ea3565b6001905092915050565b6000600560149054906101000a900460ff16905090565b60008060008373ffffffffffffffffffffffffffffffffffffffff1673ffffffffffffffffffffffffffffffffffffffff168152602001908152602001600020549050919050565b6108a9610d3b565b73ffffffffffffffffffffffffffffffffffffffff166108c7610929565b73ffffffffffffffffffffffffffffffffffffffff161461091d576040517f08c379a000000000000000000000000000000000000000000000000000000000815260040161091490611d0a565b60405180910390fd5b6109276000611391565b565b6000600560009054906101000a900473ffffffffffffffffffffffffffffffffffffffff16905090565b60606004805461096290611eda565b80601f016020809104026020016040519081016040528092919081815260200182805461098e90611eda565b80156109db5780601f106109b0576101008083540402835291602001916109db565b820191906000526020600020905b8154815290600101906020018083116109be57829003601f168201915b5050505050905090565b600080600160006109f4610d3b565b73ffffffffffffffffffffffffffffffffffffffff1673ffffffffffffffffffffffffffffffffffffffff16815260200190815260200160002060008573ffffffffffffffffffffffffffffffffffffffff1673ffffffffffffffffffffffffffffffffffffffff16815260200190815260200160002054905082811015610ab1576040517f08c379a0000000000000000000000000000000000000000000000000000000008152600401610aa890611d6a565b60405180910390fd5b610ac5610abc610d3b565b85858403610ea3565b600191505092915050565b6000610ae4610add610d3b565b8484611110565b6001905092915050565b610af6610842565b15610b36576040517f08c379a0000000000000000000000000000000000000000000000000000000008152600401610b2d90611cca565b60405180910390fd5b610b3e610d3b565b73ffffffffffffffffffffffffffffffffffffffff16610b5c610929565b73ffffffffffffffffffffffffffffffffffffffff1614610bb2576040517f08c379a0000000000000000000000000000000000000000000000000000000008152600401610ba990611d0a565b60405180910390fd5b610bba611457565b565b6000600160008473ffffffffffffffffffffffffffffffffffffffff1673ffffffffffffffffffffffffffffffffffffffff16815260200190815260200160002060008373ffffffffffffffffffffffffffffffffffffffff1673ffffffffffffffffffffffffffffffffffffffff16815260200190815260200160002054905092915050565b610c4b610d3b565b73ffffffffffffffffffffffffffffffffffffffff16610c69610929565b73ffffffffffffffffffffffffffffffffffffffff1614610cbf576040517f08c379a0000000000000000000000000000000000000000000000000000000008152600401610cb690611d0a565b60405180910390fd5b600073ffffffffffffffffffffffffffffffffffffffff168173ffffffffffffffffffffffffffffffffffffffff161415610d2f576040517f08c379a0000000000000000000000000000000000000000000000000000000008152600401610d2690611c4a565b60405180910390fd5b610d3881611391565b50565b600033905090565b600073ffffffffffffffffffffffffffffffffffffffff168273ffffffffffffffffffffffffffffffffffffffff161415610db3576040517f08c379a0000000000000000000000000000000000000000000000000000000008152600401610daa90611d8a565b60405180910390fd5b610dbf600083836114fa565b8060026000828254610dd19190611dfc565b92505081905550806000808473ffffffffffffffffffffffffffffffffffffffff1673ffffffffffffffffffffffffffffffffffffffff1681526020019081526020016000206000828254610e269190611dfc565b925050819055508173ffffffffffffffffffffffffffffffffffffffff16600073ffffffffffffffffffffffffffffffffffffffff167fddf252ad1be2c89b69c2b068fc378daa952ba7f163c4a11628f55a4df523b3ef83604051610e8b9190611daa565b60405180910390a3610e9f600083836114ff565b5050565b600073ffffffffffffffffffffffffffffffffffffffff168373ffffffffffffffffffffffffffffffffffffffff161415610f13576040517f08c379a0000000000000000000000000000000000000000000000000000000008152600401610f0a90611d4a565b60405180910390fd5b600073ffffffffffffffffffffffffffffffffffffffff168273ffffffffffffffffffffffffffffffffffffffff161415610f83576040517f08c379a0000000000000000000000000000000000000000000000000000000008152600401610f7a90611c6a565b60405180910390fd5b80600160008573ffffffffffffffffffffffffffffffffffffffff1673ffffffffffffffffffffffffffffffffffffffff16815260200190815260200160002060008473ffffffffffffffffffffffffffffffffffffffff1673ffffffffffffffffffffffffffffffffffffffff168152602001908152602001600020819055508173ffffffffffffffffffffffffffffffffffffffff168373ffffffffffffffffffffffffffffffffffffffff167f8c5be1e5ebec7d5bd14f71427d1e84f3dd0314c0f7b2291e5b200ac8c7c3b925836040516110619190611daa565b60405180910390a3505050565b611076610842565b6110b5576040517f08c379a00000000000000000000000000000000000000000000000000000000081526004016110ac90611c0a565b60405180910390fd5b6000600560146101000a81548160ff0219169083151502179055507f5db9ee0a495bf2e6ff9c91a7834c1ba4fdd244a5e8aa4e537bd38aeae4b073aa6110f9610d3b565b6040516111069190611b92565b60405180910390a1565b600073ffffffffffffffffffffffffffffffffffffffff168373ffffffffffffffffffffffffffffffffffffffff161415611180576040517f08c379a000000000000000000000000000000000000000000000000000000000815260040161117790611d2a565b60405180910390fd5b600073ffffffffffffffffffffffffffffffffffffffff168273ffffffffffffffffffffffffffffffffffffffff1614156111f0576040517f08c379a00000000000000000000000000000000000000000000000000000000081526004016111e790611bea565b60405180910390fd5b6111fb8383836114fa565b60008060008573ffffffffffffffffffffffffffffffffffffffff1673ffffffffffffffffffffffffffffffffffffffff16815260200190815260200160002054905081811015611281576040517f08c379a000000000000000000000000000000000000000000000000000000000815260040161127890611caa565b60405180910390fd5b8181036000808673ffffffffffffffffffffffffffffffffffffffff1673ffffffffffffffffffffffffffffffffffffffff16815260200190815260200160002081905550816000808573ffffffffffffffffffffffffffffffffffffffff1673ffffffffffffffffffffffffffffffffffffffff16815260200190815260200160002060008282546113149190611dfc565b925050819055508273ffffffffffffffffffffffffffffffffffffffff168473ffffffffffffffffffffffffffffffffffffffff167fddf252ad1be2c89b69c2b068fc378daa952ba7f163c4a11628f55a4df523b3ef846040516113789190611daa565b60405180910390a361138b8484846114ff565b50505050565b6000600560009054906101000a900473ffffffffffffffffffffffffffffffffffffffff16905081600560006101000a81548173ffffffffffffffffffffffffffffffffffffffff021916908373ffffffffffffffffffffffffffffffffffffffff1602179055508173ffffffffffffffffffffffffffffffffffffffff168173ffffffffffffffffffffffffffffffffffffffff167f8be0079c531659141344cd1fd0a4f28419497f9722a3daafe3b4186f6b6457e060405160405180910390a35050565b61145f610842565b1561149f576040517f08c379a000000000000000000000000000000000000000000000000000000000815260040161149690611cca565b60405180910390fd5b6001600560146101000a81548160ff0219169083151502179055507f62e78cea01bee320cd4e420270b5ea74000d11b0c9f74754ebdbfc544b05a2586114e3610d3b565b6040516114f09190611b92565b60405180910390a1565b505050565b505050565b60008135905061151381611f7b565b92915050565b60008135905061152881611f92565b92915050565b60006020828403121561154057600080fd5b600061154e84828501611504565b91505092915050565b6000806040838503121561156a57600080fd5b600061157885828601611504565b925050602061158985828601611504565b9150509250929050565b6000806000606084860312156115a857600080fd5b60006115b686828701611504565b93505060206115c786828701611504565b92505060406115d886828701611519565b9150509250925092565b600080604083850312156115f557600080fd5b600061160385828601611504565b925050602061161485828601611519565b9150509250929050565b60006020828403121561163057600080fd5b600061163e84828501611519565b91505092915050565b61165081611e52565b82525050565b61165f81611e64565b82525050565b600061167082611de0565b61167a8185611deb565b935061168a818560208601611ea7565b61169381611f6a565b840191505092915050565b60006116ab602383611deb565b91507f45524332303a207472616e7366657220746f20746865207a65726f206164647260008301527f65737300000000000000000000000000000000000000000000000000000000006020830152604082019050919050565b6000611711601483611deb565b91507f5061757361626c653a206e6f74207061757365640000000000000000000000006000830152602082019050919050565b6000611751602883611deb565b91507f6f7665724c696d697420746f6b656e3a20546f6b656e2067656e65726174696f60008301527f6e206661696c65640000000000000000000000000000000000000000000000006020830152604082019050919050565b60006117b7602683611deb565b91507f4f776e61626c653a206e6577206f776e657220697320746865207a65726f206160008301527f64647265737300000000000000000000000000000000000000000000000000006020830152604082019050919050565b600061181d602283611deb565b91507f45524332303a20617070726f766520746f20746865207a65726f20616464726560008301527f73730000000000000000000000000000000000000000000000000000000000006020830152604082019050919050565b6000611883600e83611deb565b91507f496e76616c696420616d6f756e740000000000000000000000000000000000006000830152602082019050919050565b60006118c3602683611deb565b91507f45524332303a207472616e7366657220616d6f756e742065786365656473206260008301527f616c616e636500000000000000000000000000000000000000000000000000006020830152604082019050919050565b6000611929601083611deb565b91507f5061757361626c653a20706175736564000000000000000000000000000000006000830152602082019050919050565b6000611969602883611deb565b91507f45524332303a207472616e7366657220616d6f756e742065786365656473206160008301527f6c6c6f77616e63650000000000000000000000000000000000000000000000006020830152604082019050919050565b60006119cf602083611deb565b91507f4f776e61626c653a2063616c6c6572206973206e6f7420746865206f776e65726000830152602082019050919050565b6000611a0f602583611deb565b91507f45524332303a207472616e736665722066726f6d20746865207a65726f20616460008301527f64726573730000000000000000000000000000000000000000000000000000006020830152604082019050919050565b6000611a75602483611deb565b91507f45524332303a20617070726f76652066726f6d20746865207a65726f2061646460008301527f72657373000000000000000000000000000000000000000000000000000000006020830152604082019050919050565b6000611adb602583611deb565b91507f45524332303a2064656372656173656420616c6c6f77616e63652062656c6f7760008301527f207a65726f0000000000000000000000000000000000000000000000000000006020830152604082019050919050565b6000611b41601f83611deb565b91507f45524332303a206d696e7420746f20746865207a65726f2061646472657373006000830152602082019050919050565b611b7d81611e90565b82525050565b611b8c81611e9a565b82525050565b6000602082019050611ba76000830184611647565b92915050565b6000602082019050611bc26000830184611656565b92915050565b60006020820190508181036000830152611be28184611665565b905092915050565b60006020820190508181036000830152611c038161169e565b9050919050565b60006020820190508181036000830152611c2381611704565b9050919050565b60006020820190508181036000830152611c4381611744565b9050919050565b60006020820190508181036000830152611c63816117aa565b9050919050565b60006020820190508181036000830152611c8381611810565b9050919050565b60006020820190508181036000830152611ca381611876565b9050919050565b60006020820190508181036000830152611cc3816118b6565b9050919050565b60006020820190508181036000830152611ce38161191c565b9050919050565b60006020820190508181036000830152611d038161195c565b9050919050565b60006020820190508181036000830152611d23816119c2565b9050919050565b60006020820190508181036000830152611d4381611a02565b9050919050565b60006020820190508181036000830152611d6381611a68565b9050919050565b60006020820190508181036000830152611d8381611ace565b9050919050565b60006020820190508181036000830152611da381611b34565b9050919050565b6000602082019050611dbf6000830184611b74565b92915050565b6000602082019050611dda6000830184611b83565b92915050565b600081519050919050565b600082825260208201905092915050565b6000611e0782611e90565b9150611e1283611e90565b9250827fffffffffffffffffffffffffffffffffffffffffffffffffffffffffffffffff03821115611e4757611e46611f0c565b5b828201905092915050565b6000611e5d82611e70565b9050919050565b60008115159050919050565b600073ffffffffffffffffffffffffffffffffffffffff82169050919050565b6000819050919050565b600060ff82169050919050565b60005b83811015611ec5578082015181840152602081019050611eaa565b83811115611ed4576000848401525b50505050565b60006002820490506001821680611ef257607f821691505b60208210811415611f0657611f05611f3b565b5b50919050565b7f4e487b7100000000000000000000000000000000000000000000000000000000600052601160045260246000fd5b7f4e487b7100000000000000000000000000000000000000000000000000000000600052602260045260246000fd5b6000601f19601f8301169050919050565b611f8481611e52565b8114611f8f57600080fd5b50565b611f9b81611e90565b8114611fa657600080fd5b5056fea264697066735822122025f80f43b25750befd090f74894baeb993579fe03690f5686a536c5acc5a450764736f6c63430008000033",
  "immutableReferences": {},
  "source": "// SPDX-License-Identifier: MIT\r\npragma solidity ^0.8.0;\r\n\r\nimport \"@openzeppelin/contracts/token/ERC20/ERC20.sol\";\r\nimport \"@openzeppelin/contracts/access/Ownable.sol\";\r\nimport \"@openzeppelin/contracts/token/ERC20/extensions/ERC20Pausable.sol\";\r\n \r\n \r\ncontract HASANTOKEN is ERC20,Ownable,Pausable{\r\n      uint256 public cap;\r\n\r\n    constructor(uint256 initialSupply) ERC20(\"HASANTOKEN\",\"HT\"){\r\n           cap=initialSupply*10;\r\n         _mint(msg.sender, initialSupply);\r\n    }\r\n    \r\n    function generateToken(uint256 amount) public onlyOwner whenNotPaused {\r\n   \r\n        require(amount >0, \"Invalid amount\");\r\n        require(totalSupply()+amount<cap,\"overLimit token: Token generation failed\");\r\n        _mint(msg.sender,amount);\r\n        \r\n    }\r\n    \r\n    function stopTransaction()public whenNotPaused onlyOwner{\r\n        _pause();\r\n        \r\n    }\r\n    function startTransaction()public whenPaused onlyOwner{\r\n        _unpause();\r\n        \r\n    }\r\n    \r\n    \r\n    \r\n    \r\n}",
  "sourcePath": "D:/blockchain-quater3-assigments/assigment-3B/contracts/ERC20.sol",
  "compiler": {
    "name": "solc",
    "version": "0.8.0+commit.c7dfd78e.Emscripten.clang"
  },
  "schemaVersion": "3.4.1",
  "updatedAt": "2021-08-20T00:03:04.316Z",
  "devdoc": {
    "kind": "dev",
    "methods": {
      "allowance(address,address)": {
        "details": "See {IERC20-allowance}."
      },
      "approve(address,uint256)": {
        "details": "See {IERC20-approve}. Requirements: - `spender` cannot be the zero address."
      },
      "balanceOf(address)": {
        "details": "See {IERC20-balanceOf}."
      },
      "decimals()": {
        "details": "Returns the number of decimals used to get its user representation. For example, if `decimals` equals `2`, a balance of `505` tokens should be displayed to a user as `5.05` (`505 / 10 ** 2`). Tokens usually opt for a value of 18, imitating the relationship between Ether and Wei. This is the value {ERC20} uses, unless this function is overridden; NOTE: This information is only used for _display_ purposes: it in no way affects any of the arithmetic of the contract, including {IERC20-balanceOf} and {IERC20-transfer}."
      },
      "decreaseAllowance(address,uint256)": {
        "details": "Atomically decreases the allowance granted to `spender` by the caller. This is an alternative to {approve} that can be used as a mitigation for problems described in {IERC20-approve}. Emits an {Approval} event indicating the updated allowance. Requirements: - `spender` cannot be the zero address. - `spender` must have allowance for the caller of at least `subtractedValue`."
      },
      "increaseAllowance(address,uint256)": {
        "details": "Atomically increases the allowance granted to `spender` by the caller. This is an alternative to {approve} that can be used as a mitigation for problems described in {IERC20-approve}. Emits an {Approval} event indicating the updated allowance. Requirements: - `spender` cannot be the zero address."
      },
      "name()": {
        "details": "Returns the name of the token."
      },
      "owner()": {
        "details": "Returns the address of the current owner."
      },
      "paused()": {
        "details": "Returns true if the contract is paused, and false otherwise."
      },
      "renounceOwnership()": {
        "details": "Leaves the contract without owner. It will not be possible to call `onlyOwner` functions anymore. Can only be called by the current owner. NOTE: Renouncing ownership will leave the contract without an owner, thereby removing any functionality that is only available to the owner."
      },
      "symbol()": {
        "details": "Returns the symbol of the token, usually a shorter version of the name."
      },
      "totalSupply()": {
        "details": "See {IERC20-totalSupply}."
      },
      "transfer(address,uint256)": {
        "details": "See {IERC20-transfer}. Requirements: - `recipient` cannot be the zero address. - the caller must have a balance of at least `amount`."
      },
      "transferFrom(address,address,uint256)": {
        "details": "See {IERC20-transferFrom}. Emits an {Approval} event indicating the updated allowance. This is not required by the EIP. See the note at the beginning of {ERC20}. Requirements: - `sender` and `recipient` cannot be the zero address. - `sender` must have a balance of at least `amount`. - the caller must have allowance for ``sender``'s tokens of at least `amount`."
      },
      "transferOwnership(address)": {
        "details": "Transfers ownership of the contract to a new account (`newOwner`). Can only be called by the current owner."
      }
    },
    "version": 1
  },
  "userdoc": {
    "kind": "user",
    "methods": {},
    "version": 1
  }
}